{
  "_format": "hh-sol-artifact-1",
  "contractName": "OrderSwap",
  "sourceName": "contracts/OrderSwap.sol",
  "abi": [
    {
      "inputs": [
        {
          "internalType": "uint256",
          "name": "_feePercentage",
          "type": "uint256"
        }
      ],
      "stateMutability": "nonpayable",
      "type": "constructor"
    },
    {
      "inputs": [],
      "name": "AmountMustBeGreaterThanZero",
      "type": "error"
    },
    {
      "inputs": [],
      "name": "InsufficientBalanceOfDesiredToken",
      "type": "error"
    },
    {
      "inputs": [],
      "name": "InvalidFeePercentage",
      "type": "error"
    },
    {
      "inputs": [],
      "name": "InvalidSlippageTolerance",
      "type": "error"
    },
    {
      "inputs": [],
      "name": "OnlyDepositorCanCancel",
      "type": "error"
    },
    {
      "inputs": [],
      "name": "OnlyOwnerCanSetFee",
      "type": "error"
    },
    {
      "inputs": [],
      "name": "OrderNotActive",
      "type": "error"
    },
    {
      "inputs": [],
      "name": "TransferFailed",
      "type": "error"
    },
    {
      "anonymous": false,
      "inputs": [
        {
          "indexed": false,
          "internalType": "uint256",
          "name": "orderId",
          "type": "uint256"
        }
      ],
      "name": "OrderCancelled",
      "type": "event"
    },
    {
      "anonymous": false,
      "inputs": [
        {
          "indexed": false,
          "internalType": "uint256",
          "name": "orderId",
          "type": "uint256"
        },
        {
          "indexed": false,
          "internalType": "address",
          "name": "depositor",
          "type": "address"
        },
        {
          "indexed": false,
          "internalType": "address",
          "name": "tokenDeposited",
          "type": "address"
        },
        {
          "indexed": false,
          "internalType": "uint256",
          "name": "amountDeposited",
          "type": "uint256"
        },
        {
          "indexed": false,
          "internalType": "address",
          "name": "tokenDesired",
          "type": "address"
        },
        {
          "indexed": false,
          "internalType": "uint256",
          "name": "amountDesired",
          "type": "uint256"
        },
        {
          "indexed": false,
          "internalType": "uint256",
          "name": "slippageTolerance",
          "type": "uint256"
        }
      ],
      "name": "OrderCreated",
      "type": "event"
    },
    {
      "anonymous": false,
      "inputs": [
        {
          "indexed": false,
          "internalType": "uint256",
          "name": "orderId",
          "type": "uint256"
        },
        {
          "indexed": false,
          "internalType": "address",
          "name": "fulfiller",
          "type": "address"
        }
      ],
      "name": "OrderFulfilled",
      "type": "event"
    },
    {
      "inputs": [],
      "name": "BASIS_POINTS",
      "outputs": [
        {
          "internalType": "uint256",
          "name": "",
          "type": "uint256"
        }
      ],
      "stateMutability": "view",
      "type": "function"
    },
    {
      "inputs": [
        {
          "internalType": "uint256",
          "name": "_orderId",
          "type": "uint256"
        }
      ],
      "name": "cancelOrder",
      "outputs": [],
      "stateMutability": "nonpayable",
      "type": "function"
    },
    {
      "inputs": [
        {
          "internalType": "uint256",
          "name": "_id",
          "type": "uint256"
        }
      ],
      "name": "confirmOrder",
      "outputs": [],
      "stateMutability": "nonpayable",
      "type": "function"
    },
    {
      "inputs": [
        {
          "internalType": "address",
          "name": "_tokenDeposited",
          "type": "address"
        },
        {
          "internalType": "uint256",
          "name": "_amountDeposited",
          "type": "uint256"
        },
        {
          "internalType": "address",
          "name": "_tokenDesired",
          "type": "address"
        },
        {
          "internalType": "uint256",
          "name": "_amountDesired",
          "type": "uint256"
        },
        {
          "internalType": "uint256",
          "name": "_slippageTolerance",
          "type": "uint256"
        }
      ],
      "name": "createOrder",
      "outputs": [],
      "stateMutability": "nonpayable",
      "type": "function"
    },
    {
      "inputs": [],
      "name": "feePercentage",
      "outputs": [
        {
          "internalType": "uint256",
          "name": "",
          "type": "uint256"
        }
      ],
      "stateMutability": "view",
      "type": "function"
    },
    {
      "inputs": [],
      "name": "orderCount",
      "outputs": [
        {
          "internalType": "uint256",
          "name": "",
          "type": "uint256"
        }
      ],
      "stateMutability": "view",
      "type": "function"
    },
    {
      "inputs": [
        {
          "internalType": "uint256",
          "name": "",
          "type": "uint256"
        }
      ],
      "name": "orders",
      "outputs": [
        {
          "internalType": "address",
          "name": "depositor",
          "type": "address"
        },
        {
          "internalType": "address",
          "name": "tokenDeposited",
          "type": "address"
        },
        {
          "internalType": "uint256",
          "name": "amountDeposited",
          "type": "uint256"
        },
        {
          "internalType": "address",
          "name": "tokenDesired",
          "type": "address"
        },
        {
          "internalType": "uint256",
          "name": "amountDesired",
          "type": "uint256"
        },
        {
          "internalType": "uint256",
          "name": "slippageTolerance",
          "type": "uint256"
        },
        {
          "internalType": "bool",
          "name": "isActive",
          "type": "bool"
        }
      ],
      "stateMutability": "view",
      "type": "function"
    },
    {
      "inputs": [],
      "name": "owner",
      "outputs": [
        {
          "internalType": "address",
          "name": "",
          "type": "address"
        }
      ],
      "stateMutability": "view",
      "type": "function"
    },
    {
      "inputs": [
        {
          "internalType": "uint256",
          "name": "_feePercentage",
          "type": "uint256"
        }
      ],
      "name": "setFeePercentage",
      "outputs": [],
      "stateMutability": "nonpayable",
      "type": "function"
    }
  ],
  "bytecode": "0x60806040523480156200001157600080fd5b506040516200137f3803806200137f833981810160405281019062000037919062000116565b62000048816200009660201b60201c565b336000806101000a81548173ffffffffffffffffffffffffffffffffffffffff021916908373ffffffffffffffffffffffffffffffffffffffff160217905550806001819055505062000148565b612710811115620000d3576040517f721dbfea00000000000000000000000000000000000000000000000000000000815260040160405180910390fd5b50565b600080fd5b6000819050919050565b620000f081620000db565b8114620000fc57600080fd5b50565b6000815190506200011081620000e5565b92915050565b6000602082840312156200012f576200012e620000d6565b5b60006200013f84828501620000ff565b91505092915050565b61122780620001586000396000f3fe608060405234801561001057600080fd5b50600436106100935760003560e01c806396d4f6401161006657806396d4f6401461010c578063a001ecdd14610128578063a85c38ef14610146578063ae06c1b71461017c578063e1f1c4a71461019857610093565b80632453ffa814610098578063514fcac7146100b65780638ac7d79c146100d25780638da5cb5b146100ee575b600080fd5b6100a06101b6565b6040516100ad9190610d1f565b60405180910390f35b6100d060048036038101906100cb9190610d6b565b6101bc565b005b6100ec60048036038101906100e79190610d6b565b610321565b005b6100f6610701565b6040516101039190610dd9565b60405180910390f35b61012660048036038101906101219190610e20565b610725565b005b6101306109d1565b60405161013d9190610d1f565b60405180910390f35b610160600480360381019061015b9190610d6b565b6109d7565b6040516101739796959493929190610eb6565b60405180910390f35b61019660048036038101906101919190610d6b565b610a86565b005b6101a0610aa2565b6040516101ad9190610d1f565b60405180910390f35b60025481565b6000600360008381526020019081526020016000209050610201338260000160009054906101000a900473ffffffffffffffffffffffffffffffffffffffff16610aa8565b61021b8160060160009054906101000a900460ff16610b11565b60008160060160006101000a81548160ff0219169083151502179055506102e68160010160009054906101000a900473ffffffffffffffffffffffffffffffffffffffff1673ffffffffffffffffffffffffffffffffffffffff1663a9059cbb3384600201546040518363ffffffff1660e01b815260040161029e929190610f25565b6020604051808303816000875af11580156102bd573d6000803e3d6000fd5b505050506040513d601f19601f820116820180604052508101906102e19190610f7a565b610b4b565b7f61b9399f2f0f32ca39ce8d7be32caed5ec22fe07a6daba3a467ed479ec606582826040516103159190610d1f565b60405180910390a15050565b60006003600083815260200190815260200160002090506103528160060160009054906101000a900460ff16610b11565b600061271060015483600401546103699190610fd6565b6103739190611047565b90506000612710836005015461271061038c9190611078565b846004015461039b9190610fd6565b6103a59190611047565b905061044e8360030160009054906101000a900473ffffffffffffffffffffffffffffffffffffffff1673ffffffffffffffffffffffffffffffffffffffff166370a08231336040518263ffffffff1660e01b81526004016104079190610dd9565b602060405180830381865afa158015610424573d6000803e3d6000fd5b505050506040513d601f19601f8201168201806040525081019061044891906110c1565b82610b85565b60008360060160006101000a81548160ff02191690831515021790555061054a8360030160009054906101000a900473ffffffffffffffffffffffffffffffffffffffff1673ffffffffffffffffffffffffffffffffffffffff166323b872dd338660000160009054906101000a900473ffffffffffffffffffffffffffffffffffffffff168688600401546104e49190611078565b6040518463ffffffff1660e01b8152600401610502939291906110ee565b6020604051808303816000875af1158015610521573d6000803e3d6000fd5b505050506040513d601f19601f820116820180604052508101906105459190610f7a565b610b4b565b6105f88360010160009054906101000a900473ffffffffffffffffffffffffffffffffffffffff1673ffffffffffffffffffffffffffffffffffffffff1663a9059cbb3386600201546040518363ffffffff1660e01b81526004016105b0929190610f25565b6020604051808303816000875af11580156105cf573d6000803e3d6000fd5b505050506040513d601f19601f820116820180604052508101906105f39190610f7a565b610b4b565b6106c28360030160009054906101000a900473ffffffffffffffffffffffffffffffffffffffff1673ffffffffffffffffffffffffffffffffffffffff1663a9059cbb60008054906101000a900473ffffffffffffffffffffffffffffffffffffffff16856040518363ffffffff1660e01b815260040161067a929190610f25565b6020604051808303816000875af1158015610699573d6000803e3d6000fd5b505050506040513d601f19601f820116820180604052508101906106bd9190610f7a565b610b4b565b7fe5f48e2a4a303d196ad814389aa54cf34e7b1e404e740599d005907a2ca0cd6c84336040516106f3929190611125565b60405180910390a150505050565b60008054906101000a900473ffffffffffffffffffffffffffffffffffffffff1681565b61072e84610bc3565b61073782610bc3565b61074081610c00565b6107c88573ffffffffffffffffffffffffffffffffffffffff166323b872dd3330886040518463ffffffff1660e01b8152600401610780939291906110ee565b6020604051808303816000875af115801561079f573d6000803e3d6000fd5b505050506040513d601f19601f820116820180604052508101906107c39190610f7a565b610b4b565b6001600260008282546107db919061114e565b925050819055506040518060e001604052803373ffffffffffffffffffffffffffffffffffffffff1681526020018673ffffffffffffffffffffffffffffffffffffffff1681526020018581526020018473ffffffffffffffffffffffffffffffffffffffff1681526020018381526020018281526020016001151581525060036000600254815260200190815260200160002060008201518160000160006101000a81548173ffffffffffffffffffffffffffffffffffffffff021916908373ffffffffffffffffffffffffffffffffffffffff16021790555060208201518160010160006101000a81548173ffffffffffffffffffffffffffffffffffffffff021916908373ffffffffffffffffffffffffffffffffffffffff1602179055506040820151816002015560608201518160030160006101000a81548173ffffffffffffffffffffffffffffffffffffffff021916908373ffffffffffffffffffffffffffffffffffffffff1602179055506080820151816004015560a0820151816005015560c08201518160060160006101000a81548160ff0219169083151502179055509050507ff4e94e11847dd5a076a1f8bc24ec98dfa58292de438d62656742b833fe022ec06002543387878787876040516109c29796959493929190611182565b60405180910390a15050505050565b60015481565b60036020528060005260406000206000915090508060000160009054906101000a900473ffffffffffffffffffffffffffffffffffffffff16908060010160009054906101000a900473ffffffffffffffffffffffffffffffffffffffff16908060020154908060030160009054906101000a900473ffffffffffffffffffffffffffffffffffffffff16908060040154908060050154908060060160009054906101000a900460ff16905087565b610a8f33610c3f565b610a9881610cc7565b8060018190555050565b61271081565b8073ffffffffffffffffffffffffffffffffffffffff168273ffffffffffffffffffffffffffffffffffffffff1614610b0d576040517f8413d8ba00000000000000000000000000000000000000000000000000000000815260040160405180910390fd5b5050565b80610b48576040517f1d4ecc5b00000000000000000000000000000000000000000000000000000000815260040160405180910390fd5b50565b80610b82576040517f90b8ec1800000000000000000000000000000000000000000000000000000000815260040160405180910390fd5b50565b80821015610bbf576040517f05025b6900000000000000000000000000000000000000000000000000000000815260040160405180910390fd5b5050565b60008103610bfd576040517f5e85ae7300000000000000000000000000000000000000000000000000000000815260040160405180910390fd5b50565b612710811115610c3c576040517fc31c0b6e00000000000000000000000000000000000000000000000000000000815260040160405180910390fd5b50565b60008054906101000a900473ffffffffffffffffffffffffffffffffffffffff1673ffffffffffffffffffffffffffffffffffffffff168173ffffffffffffffffffffffffffffffffffffffff1614610cc4576040517f77e3a65f00000000000000000000000000000000000000000000000000000000815260040160405180910390fd5b50565b612710811115610d03576040517f721dbfea00000000000000000000000000000000000000000000000000000000815260040160405180910390fd5b50565b6000819050919050565b610d1981610d06565b82525050565b6000602082019050610d346000830184610d10565b92915050565b600080fd5b610d4881610d06565b8114610d5357600080fd5b50565b600081359050610d6581610d3f565b92915050565b600060208284031215610d8157610d80610d3a565b5b6000610d8f84828501610d56565b91505092915050565b600073ffffffffffffffffffffffffffffffffffffffff82169050919050565b6000610dc382610d98565b9050919050565b610dd381610db8565b82525050565b6000602082019050610dee6000830184610dca565b92915050565b610dfd81610db8565b8114610e0857600080fd5b50565b600081359050610e1a81610df4565b92915050565b600080600080600060a08688031215610e3c57610e3b610d3a565b5b6000610e4a88828901610e0b565b9550506020610e5b88828901610d56565b9450506040610e6c88828901610e0b565b9350506060610e7d88828901610d56565b9250506080610e8e88828901610d56565b9150509295509295909350565b60008115159050919050565b610eb081610e9b565b82525050565b600060e082019050610ecb600083018a610dca565b610ed86020830189610dca565b610ee56040830188610d10565b610ef26060830187610dca565b610eff6080830186610d10565b610f0c60a0830185610d10565b610f1960c0830184610ea7565b98975050505050505050565b6000604082019050610f3a6000830185610dca565b610f476020830184610d10565b9392505050565b610f5781610e9b565b8114610f6257600080fd5b50565b600081519050610f7481610f4e565b92915050565b600060208284031215610f9057610f8f610d3a565b5b6000610f9e84828501610f65565b91505092915050565b7f4e487b7100000000000000000000000000000000000000000000000000000000600052601160045260246000fd5b6000610fe182610d06565b9150610fec83610d06565b9250828202610ffa81610d06565b9150828204841483151761101157611010610fa7565b5b5092915050565b7f4e487b7100000000000000000000000000000000000000000000000000000000600052601260045260246000fd5b600061105282610d06565b915061105d83610d06565b92508261106d5761106c611018565b5b828204905092915050565b600061108382610d06565b915061108e83610d06565b92508282039050818111156110a6576110a5610fa7565b5b92915050565b6000815190506110bb81610d3f565b92915050565b6000602082840312156110d7576110d6610d3a565b5b60006110e5848285016110ac565b91505092915050565b60006060820190506111036000830186610dca565b6111106020830185610dca565b61111d6040830184610d10565b949350505050565b600060408201905061113a6000830185610d10565b6111476020830184610dca565b9392505050565b600061115982610d06565b915061116483610d06565b925082820190508082111561117c5761117b610fa7565b5b92915050565b600060e082019050611197600083018a610d10565b6111a46020830189610dca565b6111b16040830188610dca565b6111be6060830187610d10565b6111cb6080830186610dca565b6111d860a0830185610d10565b6111e560c0830184610d10565b9897505050505050505056fea26469706673582212209e767c189e4735003da553445ca2c89d39d2823c5891cf9f398b2d1b687fe43d64736f6c63430008180033",
  "linkReferences": {},
  "deployedLinkReferences": {}
}